:100000000C943E001895000018950000189500000B
:10001000189500001895000018950000189500002C
:10002000189500001895000018950000189500001C
:10003000189500001895000018950000189500000C
:1000400018950000189500001895000018950000FC
:1000500018950000189500001895000018950000EC
:1000600018950000189500001895000018950000DC
:100070001895000018950000189500008FEF8DBFAF
:10008000C0EEE0ED4E2E80E18EBFD0E1F0E15F2EBC
:10009000A89584B7082E877F84BF88E1992780932D
:1000A000600090936000EEEFFFE0A0E0B1E08827F1
:1000B0008D933197E9F783E08093C40080E08093CB
:1000C000C50088E18093C100662486E880937A00A9
:1000D00080E080937C003B9A219A3C9A3A9A399A24
:1000E000549A3D9A389A3E9A209A559A3F9A0C9A79
:1000F000099A0A9A0D9A229A579A569A02E010E0A3
:1001000020E030E0AEE1B1E00D931D932D933C93E0
:1001100000EE17E02EE730E0A8E0B1E00D931D936C
:100120002D933C9381E08093000184E08093010152
:1001300083E08093140180E08093020185E0809346
:1001400003012A9AE1E0F0E00E945613459A119AC1
:100150001298E1E0F0E00E945613409844985C98B1
:100160002A9A469A2998479A149870917A0070684A
:1001700070937A005C9A00917C00007E0660009388
:100180007C000E94A113A5EEB4E08D939C93A5EE94
:10019000B4E00D911C91003951E0150718F011F0F1
:1001A0000C94D4000C94D9005C981598479A0C9440
:1001B000DC005C9A159A47980E949115AEE7B1E071
:1001C00035E00E9420130E948E15AEE7B1E00E9438
:1001D0005915A4EAB1E00D931C93A4EAB1E00D9186
:1001E0001C91023050E0150711F00C94FB000E94A6
:1001F0009B0B0C945C01003050E0150711F00C943F
:1002000005010E94A7010C945C01013050E0150724
:1002100011F00C940F010E94A7010C945C010330B3
:1002200050E0150711F00C9419010E94A7010C94DD
:100230005C01043050E0150711F00C9423010E947A
:10024000A7010C945C01063050E0150711F00C94E6
:100250002D010E945E010C945C01043150E01507F1
:1002600011F00C9437010E94A7010C945C01083036
:1002700050E0150711F00C94500100917C00007EB5
:10028000076000937C000E94A113A5EEB4E08D935B
:100290009C9332E0A5EEB4E00E9447130C945C01FD
:1002A000093050E0150711F00C945C01E0EBFBE223
:1002B0000E9440130E944C130C94BB000E949115A5
:1002C000A2E2B1E035E00E9420130E948E15A2E266
:1002D000B1E00E945915AEE1B1E00D931D932D934D
:1002E0003D9308950AE010E020E030E0AEE1B1E097
:1002F0004D915D916D917C910E947E13AAEDB4E0C9
:100300000D931D932D933D9301E010E020E030E02C
:10031000A6EDB4E00D931D932D933C93AAEDB4E0AC
:100320004D915D916D917C91A6EDB4E00D911D9183
:100330002D913C910E9446151CF011F00C94A601E1
:10034000A6EDB4E00E94ED120C948E0108950E9477
:100350009115A4E8B1E03FE00E9420130E948E15A1
:100360000E949115A2E7B1E035E00E9420130E949F
:100370008E150E949115A8E7B1E035E00E94201388
:100380000E948E150E949115A4E9B1E03FE00E9401
:1003900020130E948E15459A149A119884E690E0D5
:1003A0000E946513449A8AE090E00E946513449885
:1003B0008AE090E00E9465133A9A3B9A4398A0E045
:1003C000B1E0119698E08E91983018F4392F992762
:1003D00002C038E09850881F429808F4429A000002
:1003E0000000439AEF93FF93E5E0F0E00E945C1376
:1003F000FF91EF914398EF93FF93E5E0F0E00E94C7
:100400005C13FF91EF913A9531F79923E1F683ED73
:10041000809311013A9A3B9A4398A1E1B1E0119679
:1004200098E08E91983018F4392F992702C038E05F
:100430009850881F429808F4429A00000000439A9E
:10044000EF93FF93E1E2F0E00E945C13FF91EF91E4
:100450004398EF93FF93E1E2F0E00E945C13FF9179
:10046000EF913A9531F79923E1F680E080931101FD
:100470003A9A3B9A4398A1E1B1E0119698E08E91A7
:10048000983018F4392F992702C038E09850881F07
:10049000429808F4429A00000000439AEF93FF93B9
:1004A000E1E2F0E00E945C13FF91EF914398EF933B
:1004B000FF93E1E2F0E00E945C13FF91EF913A9527
:1004C00031F79923E1F680E0809311013A9A3B9A43
:1004D0004398A1E1B1E0119698E08E91983018F41C
:1004E000392F992702C038E09850881F429808F4A5
:1004F000429A00000000439AEF93FF93E1E2F0E09C
:100500000E945C13FF91EF914398EF93FF93E1E218
:10051000F0E00E945C13FF91EF913A9531F7992337
:10052000E1F6419A41983A9A3B9A4398A2E0B1E0A9
:10053000119698E08E91983018F4392F992702C0BF
:1005400038E09850881F429808F4429A0000000052
:10055000439AEF93FF93E1E2F0E00E945C13FF9176
:10056000EF914398EF93FF93E1E2F0E00E945C1378
:10057000FF91EF913A9531F79923E1F680E480936A
:100580000C013A9A3B9A4398ACE0B1E0119698E09E
:100590008E91983018F4392F992702C038E098507E
:1005A000881F429808F4429A00000000439AEF9393
:1005B000FF93E1E2F0E00E945C13FF91EF9143981A
:1005C000EF93FF93E1E2F0E00E945C13FF91EF9163
:1005D0003A9531F79923E1F63A9A3B9A4398A4E188
:1005E000B1E0119698E08E91983018F4392F992740
:1005F00002C038E09850881F429808F4429A0000E0
:100600000000439AEF93FF93E1E2F0E00E945C1355
:10061000FF91EF914398EF93FF93E1E2F0E00E94A6
:100620005C13FF91EF913A9531F79923E1F680E061
:10063000809315013A9A3B9A4398A5E1B1E011964F
:1006400098E08E91983018F4392F992702C038E03D
:100650009850881F429808F4429A00000000439A7C
:10066000EF93FF93E1E2F0E00E945C13FF91EF91C2
:100670004398EF93FF93E1E2F0E00E945C13FF9157
:10068000EF913A9531F79923E1F683E080931501D4
:100690003A9A3B9A4398A5E1B1E0119698E08E9181
:1006A000983018F4392F992702C038E09850881FE5
:1006B000429808F4429A00000000439AEF93FF9397
:1006C000E1E2F0E00E945C13FF91EF914398EF9319
:1006D000FF93E1E2F0E00E945C13FF91EF913A9505
:1006E00031F79923E1F680E0809315013A9A3B9A1D
:1006F0004398A5E1B1E0119698E08E91983018F4F6
:10070000392F992702C038E09850881F429808F482
:10071000429A00000000439AEF93FF93E1E2F0E079
:100720000E945C13FF91EF914398EF93FF93E1E2F6
:10073000F0E00E945C13FF91EF913A9531F7992315
:10074000E1F63A9A3B9A4398A2E0B1E0119698E01C
:100750008E91983018F4392F992702C038E09850BC
:10076000881F429808F4429A00000000439AEF93D1
:10077000FF93E1E2F0E00E945C13FF91EF91439858
:10078000EF93FF93E1E2F0E00E945C13FF91EF91A1
:100790003A9531F79923E1F680E880930C013A9A73
:1007A0003B9A4398ACE0B1E0119698E08E91983076
:1007B00018F4392F992702C038E09850881F4298C2
:1007C00008F4429A00000000439AEF93FF93E1E29D
:1007D000F0E00E945C13FF91EF914398EF93FF9339
:1007E000E1E2F0E00E945C13FF91EF913A9531F75E
:1007F0009923E1F63A9A3B9A4398A4E1B1E0119625
:1008000098E08E91983018F4392F992702C038E07B
:100810009850881F429808F4429A00000000439ABA
:10082000EF93FF93E1E2F0E00E945C13FF91EF9100
:100830004398EF93FF93E1E2F0E00E945C13FF9195
:10084000EF913A9531F79923E1F680E08093150115
:100850003A9A3B9A4398A5E1B1E0119698E08E91BF
:10086000983018F4392F992702C038E09850881F23
:10087000429808F4429A00000000439AEF93FF93D5
:10088000E1E2F0E00E945C13FF91EF914398EF9357
:10089000FF93E1E2F0E00E945C13FF91EF913A9543
:1008A00031F79923E1F6A4EAB1E00D911C910030F3
:1008B00050E0150781E009F080E08F93A4EAB1E0F1
:1008C0000D911C91033050E0150781E009F080E0A4
:1008D0009F91892B8F93A4EAB1E00D911C91043074
:1008E00050E0150781E009F080E09F91892B882373
:1008F00011F40C94800481E0809315010C9483041E
:1009000082E080931501A4EAB1E00D911C910431BD
:1009100050E0150711F00C94900482E080931501CB
:100920003A9A3B9A4398A5E1B1E0119698E08E91EE
:10093000983018F4392F992702C038E09850881F52
:10094000429808F4429A00000000439AEF93FF9304
:10095000E1E2F0E00E945C13FF91EF914398EF9386
:10096000FF93E1E2F0E00E945C13FF91EF913A9572
:1009700031F79923E1F680E0809315013A9A3B9A8A
:100980004398A5E1B1E0119698E08E91983018F463
:10099000392F992702C038E09850881F429808F4F0
:1009A000429A00000000439AEF93FF93E1E2F0E0E7
:1009B0000E945C13FF91EF914398EF93FF93E1E264
:1009C000F0E00E945C13FF91EF913A9531F7992383
:1009D000E1F6419A4198A4E8B1E00E945915AAEACB
:1009E000B1E00D931D932D933D93A2E7B1E00E94DA
:1009F0005915ADE0B1E00D931C93A8E7B1E00E945A
:100A00005915A6EAB1E00D931D932D933D93A4E9EA
:100A1000B1E00E945915AEEAB1E00D931D932D93FC
:100A20003D93A2EEB4E00E945915A5EEB4E00D93FB
:100A30001C93A4EAB1E00D911C91003050E0150721
:100A400081E009F080E08F93A4EAB1E00D911C9160
:100A5000033050E0150781E009F080E09F91892B79
:100A60008F93A4EAB1E00D911C91043050E015077A
:100A700081E009F080E09F91892B8F93A4EAB1E097
:100A80000D911C91043150E0150781E009F080E0E0
:100A90009F91892B882311F40C9452055D98289816
:100AA000469A2998A4EAB1E00D911C91013050E0DA
:100AB000150711F00C9460055D9A289846982998BE
:100AC000ECEAFBE20E942215E6EAF1E00E94011442
:100AD0000E9425140E947114EDE0F0E0A6E1B1E05F
:100AE0000E948815E6E1F1E00E949715EDE0F0E044
:100AF0000E94C313AAE1B1E0DC9281E08093E70495
:100B000081E08093E70440911A010091E704041703
:100B100018F011F00C94990584E680931B010E9453
:100B2000C805A7EEB4E08C918F5F8C9310F40C9401
:100B30008305AAE1B1E00D91112744E650E00E943F
:100B40007413ACE1B1E00D931C93A6EAB1E00D91F2
:100B50001C91ACE1B1E04D915C91041B150BACE133
:100B6000B1E00D931C93ACE1B1E00D911C9101300B
:100B700050E0150710F40C94C30580911C0180937C
:100B80001B010E94C805449A119A4598149808952B
:100B90004498159885E090E00E94651301E010E00C
:100BA00020E030E0A2EBB1E00D931D932D933C9338
:100BB000ABE1B1E04C91552766277727A2EBB1E076
:100BC0000D911D912D913C910E9446151CF011F044
:100BD0000C94460B3A9A3B9A4398A2E0B1E01196E6
:100BE00098E08E91983018F4392F992702C038E098
:100BF0009850881F429808F4429A00000000439AD7
:100C0000000000004398000000003A9591F79923F6
:100C100041F780EC80930C013A9A3B9A4398ACE000
:100C2000B1E0119698E08E91983018F4392F9927F9
:100C300002C038E09850881F429808F4429A000099
:100C40000000439A000000004398000000003A951D
:100C500091F7992341F73A9A3B9A4398A1E0B1E082
:100C6000119698E08E91983018F4392F992702C088
:100C700038E09850881F429808F4429A000000001B
:100C8000439A000000004398000000003A9591F755
:100C9000992341F73A9A3B9A4398AAEAB1E014960D
:100CA00090E28E91983018F4392F992702C038E0DD
:100CB0009850881F429808F4429A00000000439A16
:100CC000000000004398000000003A9591F7992336
:100CD00041F73A9A3B9A4398A3E0B1E0119698E025
:100CE0008E91983018F4392F992702C038E0985027
:100CF000881F429808F4429A00000000439A0000BE
:100D000000004398000000003A9591F7992341F7BD
:100D100080E090E0ADE0B1E08D939C933A9A3B9AED
:100D20004398ADE0B1E0129690E18E91983018F4BE
:100D3000392F992702C038E09850881F429808F44C
:100D4000429A00000000439A00000000439800000F
:100D500000003A9591F7992341F7419A41980E94F2
:100D60007201A4EAB1E00D911C91013050E0150729
:100D700011F00C941B072A982A9A2A9884EB94EF76
:100D8000A2E1B1E08D939C9380E090E0A2EBB1E012
:100D9000AD90BC90A4EBB1E0AA0CBB1CAA0DBB1D8E
:100DA0008D939C93569A579A5F98A2E1B1E0129660
:100DB0009EE08E91983018F4392F992702C038E0C0
:100DC0009850881F5E9808F45E9A000000005F9AB1
:100DD000000000005F98000000003A9591F7992309
:100DE00041F72A9A2A98579A23985F9A90E1A2EBA2
:100DF000B1E0AD90BC90A4EBB1E0AA0CBB1CAA0D75
:100E0000BB1D1296983018F4392F992702C038E08C
:100E100098505F980000000088941B990894881FE0
:100E20005F9A000000003A95A1F78E93992351F73D
:100E30002A9A0C9469072A9884EB90EFA2E1B1E01A
:100E40008D939C93569A579A5F98A2E1B1E01296BF
:100E50009EE08E91983018F4392F992702C038E01F
:100E60009850881F5E9808F45E9A000000005F9A10
:100E7000000000005F98000000003A9591F7992368
:100E800041F72A9A2A98579A23985F9A90E1A2EB01
:100E9000B1E0AD90BC90A4EBB1E0AA0CBB1CAA0DD4
:100EA000BB1D1296983018F4392F992702C038E0EC
:100EB00098505F980000000088941B990894881F40
:100EC0005F9A000000003A95A1F78E93992351F79D
:100ED0002A9A3A9A3B9A4398A2E0B1E0119698E098
:100EE0008E91983018F4392F992702C038E0985025
:100EF000881F429808F4429A00000000439A0000BC
:100F000000004398000000003A9591F7992341F7BB
:100F100080E480930C013A9A3B9A4398ACE0B1E0AC
:100F2000119698E08E91983018F4392F992702C0C5
:100F300038E09850881F429808F4429A0000000058
:100F4000439A000000004398000000003A9591F792
:100F5000992341F73A9A3B9A4398A3E0B1E011965E
:100F600098E08E91983018F4392F992702C038E014
:100F70009850881F429808F4429A00000000439A53
:100F8000000000004398000000003A9591F7992373
:100F900041F780E090E1ADE0B1E08D939C933A9A07
:100FA0003B9A4398ADE0B1E0129690E18E91983073
:100FB00018F4392F992702C038E09850881F4298BA
:100FC00008F4429A00000000439A00000000439891
:100FD000000000003A9591F7992341F7419A419812
:100FE0000E947201A4EAB1E00D911C91013050E021
:100FF000150711F00C945C0884EB94EFA2E1B1E0CA
:101000008D939C9380E090E0A2EBB1E0AD90BC901A
:10101000ACE7B2E0AA0CBB1CAA0DBB1D8D939C9340
:101020002A982A9A2A98569A579A5F98A2E1B1E08C
:1010300012969EE08E91983018F4392F992702C0AD
:1010400038E09850881F5E9808F45E9A000000000F
:101050005F9A000000005F98000000003A9591F749
:10106000992341F72A9A2A98579A23985F9A90E1F0
:10107000A2EBB1E0AD90BC90ACE7B2E0AA0CBB1C17
:10108000AA0DBB1D1296983018F4392F992702C06B
:1010900038E098505F980000000088941B990894ED
:1010A000881F5F9A000000003A95A1F78E9399235C
:1010B00051F72A9A0C94AA082A9884EB90EFA2E19F
:1010C000B1E08D939C93569A579A5F98A2E1B1E054
:1010D00012969EE08E91983018F4392F992702C00D
:1010E00038E09850881F5E9808F45E9A000000006F
:1010F0005F9A000000005F98000000003A9591F7A9
:10110000992341F72A9A2A98579A23985F9A90E14F
:10111000A2EBB1E0AD90BC90ACE7B2E0AA0CBB1C76
:10112000AA0DBB1D1296983018F4392F992702C0CA
:1011300038E098505F980000000088941B9908944C
:10114000881F5F9A000000003A95A1F78E939923BB
:1011500051F72A9A3A9A3B9A4398A2E0B1E0119645
:1011600098E08E91983018F4392F992702C038E012
:101170009850881F429808F4429A00000000439A51
:10118000000000004398000000003A9591F7992371
:1011900041F780E480930C013A9A3B9A4398ACE083
:1011A000B1E0119698E08E91983018F4392F992774
:1011B00002C038E09850881F429808F4429A000014
:1011C0000000439A000000004398000000003A9598
:1011D00091F7992341F73A9A3B9A4398A3E0B1E0FB
:1011E000119698E08E91983018F4392F992702C003
:1011F00038E09850881F429808F4429A0000000096
:10120000439A000000004398000000003A9591F7CF
:10121000992341F780E090E2ADE0B1E08D939C939B
:101220003A9A3B9A4398ADE0B1E0129690E18E91E4
:10123000983018F4392F992702C038E09850881F49
:10124000429808F4429A00000000439A000000000F
:101250004398000000003A9591F7992341F7419A8D
:1012600041980E947201A4EAB1E00D911C910130F5
:1012700050E0150711F00C949D0984EB94EFA2E166
:10128000B1E08D939C9380E090E0A2EBB1E0AD9053
:10129000BC90A4E4B3E0AA0CBB1CAA0DBB1D8D93AB
:1012A0009C932A982A9A2A98569A579A5F98A2E16C
:1012B000B1E012969EE08E91983018F4392F99275C
:1012C00002C038E09850881F5E9808F45E9A0000CB
:1012D00000005F9A000000005F98000000003A954F
:1012E00091F7992341F72A9A2A98579A23985F9A57
:1012F00090E1A2EBB1E0AD90BC90A4E4B3E0AA0C05
:10130000BB1CAA0DBB1D1296983018F4392F9927D3
:1013100002C038E098505F980000000088941B9944
:101320000894881F5F9A000000003A95A1F78E93F9
:10133000992351F72A9A0C94EB092A9884EB90EFA1
:10134000A2E1B1E08D939C93569A579A5F98A2E1DF
:10135000B1E012969EE08E91983018F4392F9927BB
:1013600002C038E09850881F5E9808F45E9A00002A
:1013700000005F9A000000005F98000000003A95AE
:1013800091F7992341F72A9A2A98579A23985F9AB6
:1013900090E1A2EBB1E0AD90BC90A4E4B3E0AA0C64
:1013A000BB1CAA0DBB1D1296983018F4392F992733
:1013B00002C038E098505F980000000088941B99A4
:1013C0000894881F5F9A000000003A95A1F78E9359
:1013D000992351F72A9A3A9A3B9A4398A2E0B1E0AE
:1013E000119698E08E91983018F4392F992702C001
:1013F00038E09850881F429808F4429A0000000094
:10140000439A000000004398000000003A9591F7CD
:10141000992341F780E480930C013A9A3B9A4398D0
:10142000ACE0B1E0119698E08E91983018F4392F25
:10143000992702C038E09850881F429808F4429AD1
:1014400000000000439A00000000439800000000E4
:101450003A9591F7992341F73A9A3B9A4398A3E03A
:10146000B1E0119698E08E91983018F4392F9927B1
:1014700002C038E09850881F429808F4429A000051
:101480000000439A000000004398000000003A95D5
:1014900091F7992341F780E090E3ADE0B1E08D93BF
:1014A0009C933A9A3B9A4398ADE0B1E0129690E152
:1014B0008E91983018F4392F992702C038E098504F
:1014C000881F429808F4429A00000000439A0000E6
:1014D00000004398000000003A9591F7992341F7E6
:1014E000419A41980E947201A4EAB1E00D911C91C9
:1014F000013050E0150711F00C94DE0A84EB94EFF4
:10150000A2E1B1E08D939C9380E090E0A2EBB1E08A
:10151000AD90BC90ACE0B4E0AA0CBB1CAA0DBB1D06
:101520008D939C932A982A9A2A98569A579A5F984C
:10153000A2E1B1E012969EE08E91983018F4392F16
:10154000992702C038E09850881F5E9808F45E9A88
:10155000000000005F9A000000005F98000000009B
:101560003A9591F7992341F72A9A2A98579A2398FE
:101570005F9A90E1A2EBB1E0AD90BC90ACE0B4E03A
:10158000AA0CBB1CAA0DBB1D1296983018F4392F5B
:10159000992702C038E098505F98000000008894B6
:1015A0001B990894881F5F9A000000003A95A1F7E4
:1015B0008E93992351F72A9A0C942C0B2A9884EB3A
:1015C00090EFA2E1B1E08D939C93569A579A5F9861
:1015D000A2E1B1E012969EE08E91983018F4392F76
:1015E000992702C038E09850881F5E9808F45E9AE8
:1015F000000000005F9A000000005F9800000000FB
:101600003A9591F7992341F72A9A2A98579A23985D
:101610005F9A90E1A2EBB1E0AD90BC90ACE0B4E099
:10162000AA0CBB1CAA0DBB1D1296983018F4392FBA
:10163000992702C038E098505F9800000000889415
:101640001B990894881F5F9A000000003A95A1F743
:101650008E93992351F72A9AAAEAB1E00D911D9130
:101660002D913C91AEEAB1E04D915D916D917C91EF
:101670000E944115AAEAB1E00D931D932D933D936D
:10168000A2EBB1E00E94ED120C94D805159A81E00E
:1016900090E00E94651381E08093E80481E08093EC
:1016A000E80440911B010091E804041718F011F0C0
:1016B0000C94960B32E0A8EEB4E0AD90BB24A4EB02
:1016C000B1E0AA0CBB1CAA0DBB1D0E94471332E05F
:1016D000A8EEB4E0AD90BB24ACE7B2E0AA0CBB1C12
:1016E000AA0DBB1D0E94471332E0A8EEB4E0AD90F6
:1016F000BB24A4E4B3E0AA0CBB1CAA0DBB1D0E9432
:10170000471332E0A8EEB4E0AD90BB24ACE0B4E007
:10171000AA0CBB1CAA0DBB1D0E944713A8EEB4E087
:101720008C918F5F8C9310F40C94510B84E190E0BA
:101730000E946513089541980E949115A8E2B1E0B6
:101740003FE00E9420130E948E150E949115A8E38D
:10175000B1E03FE00E9420130E948E150E94911577
:10176000A8E4B1E036E00E9420130E948E150E948A
:101770009115AFE4B1E035E00E9420130E948E1570
:101780000E949115A5E5B1E036E00E9420130E9469
:101790008E150E949115ACE5B1E036E00E94201351
:1017A0000E948E15A8E2B1E00E945915A3E6B1E0AF
:1017B0000D931D932D933D93A8E3B1E00E9459151D
:1017C000A7E6B1E00D931D932D933D93A8E4B1E0FE
:1017D0000E945915ABE6B1E00D931C93AFE4B1E064
:1017E0000E945915ADE6B1E00C93A5E5B1E00E9469
:1017F0005915AEE6B1E00D931C93ACE5B1E00E9443
:101800005915A0E7B1E00D931C93459A11988AE011
:1018100090E00E946513449A8AE090E00E9465136C
:1018200044988AE090E00E9465133A9A3B9A439864
:10183000A0E0B1E0119698E08E91983018F4392F1D
:10184000992702C038E09850881F429808F4429ABD
:1018500000000000439AEF93FF93E5E0F0E00E9460
:101860005C13FF91EF914398EF93FF93E5E0F0E075
:101870000E945C13FF91EF913A9531F79923E1F6BD
:1018800083ED809311013A9A3B9A4398A1E1B1E02C
:10189000119698E08E91983018F4392F992702C04C
:1018A00038E09850881F429808F4429A00000000DF
:1018B000439AEF93FF93E1E2F0E00E945C13FF9103
:1018C000EF914398EF93FF93E1E2F0E00E945C1305
:1018D000FF91EF913A9531F79923E1F680E08093FB
:1018E00011013A9A3B9A4398A1E1B1E0119698E030
:1018F0008E91983018F4392F992702C038E098500B
:10190000881F429808F4429A00000000439AEF931F
:10191000FF93E1E2F0E00E945C13FF91EF914398A6
:10192000EF93FF93E1E2F0E00E945C13FF91EF91EF
:101930003A9531F79923E1F680E0809311013A9AC4
:101940003B9A4398A1E1B1E0119698E08E919830CE
:1019500018F4392F992702C038E09850881F429810
:1019600008F4429A00000000439AEF93FF93E1E2EB
:10197000F0E00E945C13FF91EF914398EF93FF9387
:10198000E1E2F0E00E945C13FF91EF913A9531F7AC
:101990009923E1F6419A41983A9A3B9A4398A2E0FA
:1019A000B1E0119698E08E91983018F4392F99276C
:1019B00002C038E09850881F429808F4429A00000C
:1019C0000000439AEF93FF93E1E2F0E00E945C1382
:1019D000FF91EF914398EF93FF93E1E2F0E00E94D3
:1019E0005C13FF91EF913A9531F79923E1F680EC82
:1019F00080930C013A9A3B9A4398ACE0B1E011967F
:101A000098E08E91983018F4392F992702C038E069
:101A10009850881F429808F4429A00000000439AA8
:101A2000EF93FF93E1E2F0E00E945C13FF91EF91EE
:101A30004398EF93FF93E1E2F0E00E945C13FF9183
:101A4000EF913A9531F79923E1F63A9A3B9A439808
:101A5000A4E1B1E0119698E08E91983018F4392FF6
:101A6000992702C038E09850881F429808F4429A9B
:101A700000000000439AEF93FF93E1E2F0E00E9440
:101A80005C13FF91EF914398EF93FF93E1E2F0E055
:101A90000E945C13FF91EF913A9531F79923E1F69B
:101AA00080E0809315013A9A3B9A4398A5E1B1E012
:101AB000119698E08E91983018F4392F992702C02A
:101AC00038E09850881F429808F4429A00000000BD
:101AD000439AEF93FF93E1E2F0E00E945C13FF91E1
:101AE000EF914398EF93FF93E1E2F0E00E945C13E3
:101AF000FF91EF913A9531F79923E1F680916D01CD
:101B0000809315013A9A3B9A4398A5E1B1E011966A
:101B100098E08E91983018F4392F992702C038E058
:101B20009850881F429808F4429A00000000439A97
:101B3000EF93FF93E1E2F0E00E945C13FF91EF91DD
:101B40004398EF93FF93E1E2F0E00E945C13FF9172
:101B5000EF913A9531F79923E1F680E080931501F2
:101B60003A9A3B9A4398A5E1B1E0119698E08E919C
:101B7000983018F4392F992702C038E09850881F00
:101B8000429808F4429A00000000439AEF93FF93B2
:101B9000E1E2F0E00E945C13FF91EF914398EF9334
:101BA000FF93E1E2F0E00E945C13FF91EF913A9520
:101BB00031F79923E1F6419A81E090E00E946513A4
:101BC00041985D98289A469A299A149AA7E6B1E016
:101BD0004D915D916D917C91A3E6B1E00D911D91C8
:101BE0002D913C910E94461511F00C94A20E3A9A48
:101BF0003B9A4398A2E0B1E0119698E08E9198301C
:101C000018F4392F992702C038E09850881F42985D
:101C100008F4429A00000000439A00000000439834
:101C2000000000003A9591F7992341F780EC8093EA
:101C30000C013A9A3B9A4398ACE0B1E0119698E0D7
:101C40008E91983018F4392F992702C038E09850B7
:101C5000881F429808F4429A00000000439AEF93CC
:101C6000FF93E1E2F0E00E945C13FF91EF91439853
:101C7000EF93FF93E1E2F0E00E945C13FF91EF919C
:101C80003A9531F79923E1F63A9A3B9A4398A1E0C5
:101C9000B1E0119698E08E91983018F4392F992779
:101CA00002C038E09850881F429808F4429A000019
:101CB0000000439AEF93FF93E1E2F0E00E945C138F
:101CC000FF91EF914398EF93FF93E1E2F0E00E94E0
:101CD0005C13FF91EF913A9531F79923E1F63A9A27
:101CE0003B9A4398A3E6B1E0149690E28E91983027
:101CF00018F4392F992702C038E09850881F42986D
:101D000008F4429A00000000439AEF93FF93E1E247
:101D1000F0E00E945C13FF91EF914398EF93FF93E3
:101D2000E1E2F0E00E945C13FF91EF913A9531F708
:101D30009923E1F6419A81E090E00E946513419871
:101D40000C94F40F3A9A3B9A4398A2E0B1E01196B2
:101D500098E08E91983018F4392F992702C038E016
:101D60009850881F429808F4429A00000000439A55
:101D7000000000004398000000003A9591F7992375
:101D800041F780E880930C013A9A3B9A4398ACE083
:101D9000B1E0119698E08E91983018F4392F992778
:101DA00002C038E09850881F429808F4429A000018
:101DB0000000439AEF93FF93E1E2F0E00E945C138E
:101DC000FF91EF914398EF93FF93E1E2F0E00E94DF
:101DD0005C13FF91EF913A9531F79923E1F63A9A26
:101DE0003B9A4398A1E0B1E0119698E08E9198302B
:101DF00018F4392F992702C038E09850881F42986C
:101E000008F4429A00000000439AEF93FF93E1E246
:101E1000F0E00E945C13FF91EF914398EF93FF93E2
:101E2000E1E2F0E00E945C13FF91EF913A9531F707
:101E30009923E1F63A9A3B9A4398A3E6B1E01496C7
:101E400090E28E91983018F4392F992702C038E02B
:101E50009850881F429808F4429A00000000439A64
:101E6000EF93FF93E1E2F0E00E945C13FF91EF91AA
:101E70004398EF93FF93E1E2F0E00E945C13FF913F
:101E8000EF913A9531F79923E1F6419A81E090E09C
:101E90000E94651341983A9A3B9A4398A2E0B1E0B8
:101EA000119698E08E91983018F4392F992702C036
:101EB00038E09850881F429808F4429A00000000C9
:101EC000439A000000004398000000003A9591F703
:101ED000992341F780E480930C013A9A3B9A439806
:101EE000ACE0B1E0119698E08E91983018F4392F5B
:101EF000992702C038E09850881F429808F4429A07
:101F000000000000439AEF93FF93E1E2F0E00E94AB
:101F10005C13FF91EF914398EF93FF93E1E2F0E0C0
:101F20000E945C13FF91EF913A9531F79923E1F606
:101F30003A9A3B9A4398A1E0B1E0119698E08E91CD
:101F4000983018F4392F992702C038E09850881F2C
:101F5000429808F4429A00000000439AEF93FF93DE
:101F6000E1E2F0E00E945C13FF91EF914398EF9360
:101F7000FF93E1E2F0E00E945C13FF91EF913A954C
:101F800031F79923E1F63A9A3B9A4398A7E6B1E0F4
:101F9000149690E28E91983018F4392F992702C048
:101FA00038E09850881F429808F4429A00000000D8
:101FB000439AEF93FF93E1E2F0E00E945C13FF91FC
:101FC000EF914398EF93FF93E1E2F0E00E945C13FE
:101FD000FF91EF913A9531F79923E1F6419A81E02B
:101FE00090E00E94651341983A9A3B9A4398A2E088
:101FF000B1E0119698E08E91983018F4392F992716
:1020000002C038E09850881F429808F4429A0000B5
:102010000000439AEF93FF93E1E2F0E00E945C132B
:10202000FF91EF914398EF93FF93E1E2F0E00E947C
:102030005C13FF91EF913A9531F79923E1F680E433
:1020400080930C013A9A3B9A4398ACE0B1E0119628
:1020500098E08E91983018F4392F992702C038E013
:102060009850881F429808F4429A00000000439A52
:10207000EF93FF93E1E2F0E00E945C13FF91EF9198
:102080004398EF93FF93E1E2F0E00E945C13FF912D
:10209000EF913A9531F79923E1F63A9A3B9A4398B2
:1020A000A3E0B1E0119698E08E91983018F4392FA2
:1020B000992702C038E09850881F429808F4429A45
:1020C00000000000439AEF93FF93E1E2F0E00E94EA
:1020D0005C13FF91EF914398EF93FF93E1E2F0E0FF
:1020E0000E945C13FF91EF913A9531F79923E1F645
:1020F0003A9A3B9A4398ABE6B1E0129690E18E9102
:10210000983018F4392F992702C038E09850881F6A
:10211000429808F4429A00000000439AEF93FF931C
:10212000E1E2F0E00E945C13FF91EF914398EF939E
:10213000FF93E1E2F0E00E945C13FF91EF913A958A
:1021400031F79923E1F6419A81E090E00E9465130E
:10215000419880916E018093EA0486E08093EB04BD
:1021600080916E018093EA043A9A3B9A4398A2E0E8
:10217000B1E0119698E08E91983018F4392F992794
:1021800002C038E09850881F429808F4429A000034
:102190000000439AEF93FF93E1E2F0E00E945C13AA
:1021A000FF91EF914398EF93FF93E1E2F0E00E94FB
:1021B0005C13FF91EF913A9531F79923E1F680E4B2
:1021C00080930C013A9A3B9A4398ACE0B1E01196A7
:1021D00098E08E91983018F4392F992702C038E092
:1021E0009850881F429808F4429A00000000439AD1
:1021F000EF93FF93E1E2F0E00E945C13FF91EF9117
:102200004398EF93FF93E1E2F0E00E945C13FF91AB
:10221000EF913A9531F79923E1F63A9A3B9A439830
:10222000ABEEB4E0119698E08E91983018F4392F07
:10223000992702C038E09850881F429808F4429AC3
:1022400000000000439AEF93FF93E1E2F0E00E9468
:102250005C13FF91EF914398EF93FF93E1E2F0E07D
:102260000E945C13FF91EF913A9531F79923E1F6C3
:1022700080E08093E9043A9A3B9A4398A9EEB4E04F
:10228000119698E08E91983018F4392F992702C052
:1022900038E09850881F429808F4429A00000000E5
:1022A000439AEF93FF93E1E2F0E00E945C13FF9109
:1022B000EF914398EF93FF93E1E2F0E00E945C130B
:1022C000FF91EF913A9531F79923E1F698E0AEE668
:1022D000B1E00E94B81300916E0140E1040FA9EE35
:1022E000B4E00C933A9A3B9A4398A9EEB4E0119665
:1022F00098E08E91983018F4392F992702C038E071
:102300009850881F429808F4429A00000000439AAF
:10231000EF93FF93E1E2F0E00E945C13FF91EF91F5
:102320004398EF93FF93E1E2F0E00E945C13FF918A
:10233000EF913A9531F79923E1F63A9A3B9A43980F
:10234000AAEEB4E0119698E08E91983018F4392FE7
:10235000992702C038E09850881F429808F4429AA2
:1023600000000000439AEF93FF93E1E2F0E00E9447
:102370005C13FF91EF914398EF93FF93E1E2F0E05C
:102380000E945C13FF91EF913A9531F79923E1F6A2
:10239000419A81E090E00E9465134198809170011C
:1023A0008093EA043A9A3B9A4398A2E0B1E01196EE
:1023B00098E08E91983018F4392F992702C038E0B0
:1023C0009850881F429808F4429A00000000439AEF
:1023D000EF93FF93E1E2F0E00E945C13FF91EF9135
:1023E0004398EF93FF93E1E2F0E00E945C13FF91CA
:1023F000EF913A9531F79923E1F680E880930C014B
:102400003A9A3B9A4398ACE0B1E0119698E08E91ED
:10241000983018F4392F992702C038E09850881F57
:10242000429808F4429A00000000439AEF93FF9309
:10243000E1E2F0E00E945C13FF91EF914398EF938B
:10244000FF93E1E2F0E00E945C13FF91EF913A9577
:1024500031F79923E1F63A9A3B9A4398ABEEB4E010
:10246000119698E08E91983018F4392F992702C070
:1024700038E09850881F429808F4429A0000000003
:10248000439AEF93FF93E1E2F0E00E945C13FF9127
:10249000EF914398EF93FF93E1E2F0E00E945C1329
:1024A000FF91EF913A9531F79923E1F680E080931F
:1024B000E9043A9A3B9A4398A9EEB4E0119698E061
:1024C0008E91983018F4392F992702C038E098502F
:1024D000881F429808F4429A00000000439AEF9344
:1024E000FF93E1E2F0E00E945C13FF91EF914398CB
:1024F000EF93FF93E1E2F0E00E945C13FF91EF9114
:102500003A9531F79923E1F698E0A0E7B1E00E940F
:10251000B8130091700140E1040FA9EEB4E00C93F0
:102520003A9A3B9A4398A9EEB4E0119698E08E91BE
:10253000983018F4392F992702C038E09850881F36
:10254000429808F4429A00000000439AEF93FF93E8
:10255000E1E2F0E00E945C13FF91EF914398EF936A
:10256000FF93E1E2F0E00E945C13FF91EF913A9556
:1025700031F79923E1F63A9A3B9A4398AAEEB4E0F0
:10258000119698E08E91983018F4392F992702C04F
:1025900038E09850881F429808F4429A00000000E2
:1025A000439AEF93FF93E1E2F0E00E945C13FF9106
:1025B000EF914398EF93FF93E1E2F0E00E945C1308
:1025C000FF91EF913A9531F79923E1F6419A81E035
:1025D00090E00E946513419808950D911D912D91F1
:1025E0003C9181E0080F8827181F281F381F3C9353
:1025F0002E931E930E93089505D00E94741300FC31
:102600000CD008950024E89457FF02C009D06894C4
:1026100000F80BD010F80124089502D009D00895D5
:10262000509540954F5F5F4F0895E89417FF0895C8
:10263000009510950F5F1F4F68940895A8EBB0E1C7
:1026400018D0883091F08D3039F03323C9F38D9351
:102650003A9563FE24D0F4CF63FC04C08DE01FD014
:102660008AE01DD088278C93089519D0119733954F
:10267000E7CF8091C00087FFFCCF8091C60008950E
:102680000E941E15802D11F00AD0FACF08958D9169
:1026900006D03A95E1F708958DE001D08AE00090E8
:1026A000C00005FEFCCF8093C600089588EE93E03D
:1026B0000CD03197D9F708953197F1F708956894C0
:1026C00062F80895E89462F80895EF93FF93EE2777
:1026D000E82BE92B31F0E3E3F7E03197F1F70197CD
:1026E000D1F7FF91EF9108950F92B801469F8001B5
:1026F000479F100D569F100D0F9008950F921F9237
:102700002F92C801D901489F80014A9F90014B9F99
:10271000202C499F100D211D321D5A9F202C589F9F
:10272000100D211D321D599F200D311D689F200D58
:10273000311D699F300D789F300D2F901F900F90A5
:10274000089570917A00706470937A0000907A0016
:1027500006FCFCCF70917A00706470937A00009050
:102760007A0006FCFCCF8091780090917900089562
:10277000903041F00D911C91169507959A95E1F7CF
:102780001C930E9308953DD0992711278F2D880F04
:1027900080E8F82A802F881F08F41FEF41F08F5738
:1027A000082F07FD04C0003240F08FEF01C08827DA
:1027B000982FD82EE82EF82E09C08FE1801B082F05
:1027C000F694E794D79497950A95D1F7112351F091
:1027D0009095D094E094F09481E0980F8827D81ECB
:1027E000E81EF81E0F2DFE2CED2CD92E0895D09446
:1027F000E094F09491E0D90E9927E91EF91E109506
:102800000895D190E190F190019108952191319135
:10281000419151910895102F90E8FF0C001F092756
:10282000990FF7941078652F90E8440F551F59279A
:10283000990F4795607800380895FF0C90E890272D
:10284000110F9795F794092F0895102FBD2CDE2CAA
:10285000EF2CF02E11234AF4B094D094E094F0942D
:102860009FEFB91AD90AE90AF90A0EE1FF2039F4F3
:10287000FE2CED2CDB2CBB240850C2F766C032F0D6
:102880000A95BB0CDD1CEE1CFF1CF9CF01D0D5CF87
:10289000B7FE089590E8B91611F4D0FE08959FEFA1
:1028A000D91AE90AF90A09F403950895502F2D2D34
:1028B0003E2D4F2D612F08952DEC3CEC4CEC5DE34B
:1028C00066270FC09EDFF2DFDD24EE2490E8F92EAC
:1028D0000FE307C09BDF05C02227332740E251E406
:1028E0006627552351F1002381F195DF71F11627F9
:1028F000005850580894050B18F407FD03C025C074
:1029000007FD23C0469537952795F694E794D7940D
:1029100022D0FF202AF0DD0CEE1CFF1C015073F0CA
:102920009D2D969548F0DD203AF4EE202AF491E0B2
:10293000D90E9927E91EF91E80CF07C09FE7092FFE
:10294000F92A9FEFD92EE92E0895DD24EE24FF24E5
:102950000027112708959F929924AA24BB2488E177
:10296000D216E306F40628F0D21AE30AF40A089411
:1029700001C08894991CAA1CBB1CDD0CEE1CFF1C1A
:102980008A9571F7D92CEA2CFB2C9F9008950AF0B8
:1029900045D053CF5FE322273327442701C036DFDA
:1029A0003ADF5038B1F3003899F3902F951B8BF331
:1029B00012F434D0FACF983118F022273327442765
:1029C000983028F0232F342F44279850F9CF99239B
:1029D00029F04695379527959A95D9F7912F9627FF
:1029E00042F014D0B0F6F794E794D7940F5F8BF6CB
:1029F000A5CF10D051F008F4FADEFF2052F2DD0C22
:102A0000EE1CFF1C0150CBF799CF9FCFD20EE31ED7
:102A1000F41E0895D21AE30AF40A0895DF92EF92A1
:102A2000FF920F931F93D22EE32EF42E052F162F15
:102A30006F915F914F913F912F910895C895319675
:102A400000200895FBDF202DF9DF302DF7DF402D2A
:102A5000F5DF502D089507FB00680EF40F7757FB44
:102A600050680EF45F7707FD02C057FF05C0D2160D
:102A7000E306F406050708952D153E054F0550079A
:102A80000895040F151F261F371F089504171507F3
:102A9000260737070895000F111F221F331F0895BF
:102AA00000951095209530950F5F1F4F2F4F3F4F8A
:102AB000089500271127222733271DD08A3328F4B1
:102AC000803318F005D015D0F9CF0EF4E9CF089572
:102AD00080538F93402F512F622F732FDCDFDBDF6A
:102AE000D0DFD9DF8F919927080F191F291F391FB0
:102AF00008958D910895E894FCDF8032E9F38B32DC
:102B0000D9F38930C9F38D3211F46894F2CF089566
:102B100094E081918D939A95E1F70895E89463F894
:102B20000895689463F808956CDE80E003C069DE60
:102B3000802F8078882321F0DF92EF92FF920F930D
:102B40008F9369DE802F839512F4FFDE1BC0809582
:102B50008A95885E0AF415C088501AF40CD0D922E0
:102B600010C0DD2488501AF406D0E9220AC0EE24F1
:102B700002D0F92206C09FEF8770990F8A95EAF775
:102B800008955BDE8F918823D9F35F914F913F9138
:102B90002F910F9360DF0F9199F390F302D050685B
:102BA000FFCE5FE340E83327222708950000C842A4
:102BB0004669726D776172652056322E332032314C
:0A2BC0002D30352D32303131000088
:00000001FF
